{
  "contractName": "ETHMap",
  "abi": [
    {
      "constant": true,
      "inputs": [
        {
          "name": "zoneId",
          "type": "uint256"
        }
      ],
      "name": "getZone",
      "outputs": [
        {
          "name": "id",
          "type": "uint256"
        },
        {
          "name": "owner",
          "type": "address"
        },
        {
          "name": "sellPrice",
          "type": "uint256"
        }
      ],
      "payable": false,
      "stateMutability": "view",
      "type": "function"
    },
    {
      "constant": true,
      "inputs": [],
      "name": "getBalance",
      "outputs": [
        {
          "name": "amount",
          "type": "uint256"
        }
      ],
      "payable": false,
      "stateMutability": "view",
      "type": "function"
    },
    {
      "constant": false,
      "inputs": [
        {
          "name": "zoneId",
          "type": "uint256"
        },
        {
          "name": "amount",
          "type": "uint256"
        }
      ],
      "name": "sellZone",
      "outputs": [
        {
          "name": "success",
          "type": "bool"
        }
      ],
      "payable": false,
      "stateMutability": "nonpayable",
      "type": "function"
    },
    {
      "constant": false,
      "inputs": [],
      "name": "withdraw",
      "outputs": [
        {
          "name": "success",
          "type": "bool"
        }
      ],
      "payable": false,
      "stateMutability": "nonpayable",
      "type": "function"
    },
    {
      "constant": false,
      "inputs": [
        {
          "name": "zoneId",
          "type": "uint256"
        },
        {
          "name": "recipient",
          "type": "address"
        }
      ],
      "name": "transferZone",
      "outputs": [
        {
          "name": "success",
          "type": "bool"
        }
      ],
      "payable": false,
      "stateMutability": "nonpayable",
      "type": "function"
    },
    {
      "constant": false,
      "inputs": [
        {
          "name": "zoneId",
          "type": "uint256"
        }
      ],
      "name": "buyZone",
      "outputs": [
        {
          "name": "success",
          "type": "bool"
        }
      ],
      "payable": true,
      "stateMutability": "payable",
      "type": "function"
    },
    {
      "constant": true,
      "inputs": [
        {
          "name": "zoneId",
          "type": "uint256"
        }
      ],
      "name": "computeInitialPrice",
      "outputs": [
        {
          "name": "price",
          "type": "uint256"
        }
      ],
      "payable": false,
      "stateMutability": "view",
      "type": "function"
    },
    {
      "inputs": [],
      "payable": false,
      "stateMutability": "nonpayable",
      "type": "constructor"
    }
  ],
  "bytecode": "0x606060405266038d7ea4c68000600055341561001a57600080fd5b33600160006101000a81548173ffffffffffffffffffffffffffffffffffffffff021916908373ffffffffffffffffffffffffffffffffffffffff1602179055506109fa8061006a6000396000f300606060405260043610610083576000357c0100000000000000000000000000000000000000000000000000000000900463ffffffff16806311ee0ec51461008857806312065fe0146100f9578063159d3c24146101225780633ccfd60b1461016657806388806b3714610193578063bee712da146101ed578063cd066fd61461021d575b600080fd5b341561009357600080fd5b6100a96004808035906020019091905050610254565b604051808481526020018373ffffffffffffffffffffffffffffffffffffffff1673ffffffffffffffffffffffffffffffffffffffff168152602001828152602001935050505060405180910390f35b341561010457600080fd5b61010c6102ea565b6040518082815260200191505060405180910390f35b341561012d57600080fd5b61014c6004808035906020019091908035906020019091905050610331565b604051808215151515815260200191505060405180910390f35b341561017157600080fd5b6101796103e9565b604051808215151515815260200191505060405180910390f35b341561019e57600080fd5b6101d3600480803590602001909190803573ffffffffffffffffffffffffffffffffffffffff169060200190919050506104bb565b604051808215151515815260200191505060405180910390f35b61020360048080359060200190919050506105ad565b604051808215151515815260200191505060405180910390f35b341561022857600080fd5b61023e600480803590602001909190505061098e565b6040518082815260200191505060405180910390f35b6000806000836001811015801561026c575060b28111155b151561027757600080fd5b60036000868152602001908152602001600020600001546003600087815260200190815260200160002060010160009054906101000a900473ffffffffffffffffffffffffffffffffffffffff166003600088815260200190815260200160002060020154935093509350509193909250565b6000600260003373ffffffffffffffffffffffffffffffffffffffff1673ffffffffffffffffffffffffffffffffffffffff16815260200190815260200160002054905090565b60008260018110158015610346575060b28111155b151561035157600080fd5b836003600082815260200190815260200160002060010160009054906101000a900473ffffffffffffffffffffffffffffffffffffffff1673ffffffffffffffffffffffffffffffffffffffff163373ffffffffffffffffffffffffffffffffffffffff161415156103c257600080fd5b83600360008781526020019081526020016000206002018190555060019250505092915050565b600080600260003373ffffffffffffffffffffffffffffffffffffffff1673ffffffffffffffffffffffffffffffffffffffff1681526020019081526020016000205490506000600260003373ffffffffffffffffffffffffffffffffffffffff1673ffffffffffffffffffffffffffffffffffffffff168152602001908152602001600020819055503373ffffffffffffffffffffffffffffffffffffffff166108fc829081150290604051600060405180830381858888f1935050505015156104b357600080fd5b600191505090565b600082600181101580156104d0575060b28111155b15156104db57600080fd5b836003600082815260200190815260200160002060010160009054906101000a900473ffffffffffffffffffffffffffffffffffffffff1673ffffffffffffffffffffffffffffffffffffffff163373ffffffffffffffffffffffffffffffffffffffff1614151561054c57600080fd5b836003600087815260200190815260200160002060010160006101000a81548173ffffffffffffffffffffffffffffffffffffffff021916908373ffffffffffffffffffffffffffffffffffffffff16021790555060019250505092915050565b600080600080600085600181101580156105c8575060b28111155b15156105d357600080fd5b600073ffffffffffffffffffffffffffffffffffffffff166003600089815260200190815260200160002060010160009054906101000a900473ffffffffffffffffffffffffffffffffffffffff1673ffffffffffffffffffffffffffffffffffffffff1614151561066657600060036000898152602001908152602001600020600201541415151561066557600080fd5b5b600073ffffffffffffffffffffffffffffffffffffffff166003600089815260200190815260200160002060010160009054906101000a900473ffffffffffffffffffffffffffffffffffffffff1673ffffffffffffffffffffffffffffffffffffffff16146106ec5760036000888152602001908152602001600020600201546106f6565b6106f58761098e565b5b945084341015151561070757600080fd5b600073ffffffffffffffffffffffffffffffffffffffff166003600089815260200190815260200160002060010160009054906101000a900473ffffffffffffffffffffffffffffffffffffffff1673ffffffffffffffffffffffffffffffffffffffff161415610801573460026000600160009054906101000a900473ffffffffffffffffffffffffffffffffffffffff1673ffffffffffffffffffffffffffffffffffffffff1673ffffffffffffffffffffffffffffffffffffffff1681526020019081526020016000206000828254019250508190555086600360008981526020019081526020016000206000018190555061090f565b61271060c8340281151561081157fe5b04935083340392508360026000600160009054906101000a900473ffffffffffffffffffffffffffffffffffffffff1673ffffffffffffffffffffffffffffffffffffffff1673ffffffffffffffffffffffffffffffffffffffff168152602001908152602001600020600082825401925050819055506003600088815260200190815260200160002060010160009054906101000a900473ffffffffffffffffffffffffffffffffffffffff16915082600260008473ffffffffffffffffffffffffffffffffffffffff1673ffffffffffffffffffffffffffffffffffffffff168152602001908152602001600020600082825401925050819055505b336003600089815260200190815260200160002060010160006101000a81548173ffffffffffffffffffffffffffffffffffffffff021916908373ffffffffffffffffffffffffffffffffffffffff16021790555060006003600089815260200190815260200160002060020181905550600195505050505050919050565b600081600181101580156109a3575060b28111155b15156109ae57600080fd5b60026000548115156109bc57fe5b046001840302600054019150509190505600a165627a7a7230582019c56333a3272052b9e5555d8282fe98eefbc8cfdfcae34298b238148de1e3bb0029",
  "source": "pragma solidity ^0.4.18;\r\n\r\ncontract ETHMap {\r\n\r\n    /// Initial price zone (= LUX)\r\n    /// set at 0.001 Eth\r\n    uint initialZonePrice = 1000000000000000 wei;\r\n\r\n    /// contractOwner address\r\n    address contractOwner;\r\n\r\n    /// Users pending withdrawals\r\n    mapping(address => uint) pendingWithdrawals;\r\n\r\n    /// Zone structures mapping\r\n    mapping(uint => Zone) zoneStructs;\r\n    uint[] zoneList;\r\n\r\n    struct Zone {\r\n        uint id;\r\n        address owner;\r\n        uint sellPrice;\r\n    }\r\n\r\n    /// Constructor\r\n    function ETHMap() public {\r\n      contractOwner = msg.sender;\r\n    }\r\n\r\n    modifier onlyValidZone(uint zoneId)\r\n    {\r\n       // Throws if zone id is not valid\r\n        require(zoneId >= 1 && zoneId <= 178);\r\n        _;\r\n    }\r\n\r\n    modifier onlyZoneOwner(uint zoneId)\r\n    {\r\n       // Throws if called by any account other than the zone owner\r\n        require(msg.sender == zoneStructs[zoneId].owner);\r\n        _;\r\n    }\r\n\r\n    function buyZone(uint zoneId) public\r\n      onlyValidZone(zoneId)\r\n      payable\r\n    returns (bool success)\r\n    {\r\n        // Throw if zone is not on sale\r\n        if (zoneStructs[zoneId].owner != address(0)) {\r\n          require(zoneStructs[zoneId].sellPrice != 0);\r\n        }\r\n        // Throw if amount sent is not sufficient\r\n        uint minPrice = (zoneStructs[zoneId].owner == address(0)) ? computeInitialPrice(zoneId) : zoneStructs[zoneId].sellPrice;\r\n        require(msg.value >= minPrice);\r\n        // If initial sale\r\n        if (zoneStructs[zoneId].owner == address(0)) {\r\n            // No current owners, credit contract owner balance\r\n            pendingWithdrawals[contractOwner] += msg.value;\r\n            // Init zone\r\n            zoneStructs[zoneId].id = zoneId;\r\n        } else {\r\n          // Contract owner take 2% cut on transaction\r\n          uint256 contractOwnerCut = (msg.value * 200) / 10000;\r\n          uint256 ownersShare = msg.value - contractOwnerCut;\r\n          // Credit contract owner\r\n          pendingWithdrawals[contractOwner] += contractOwnerCut;\r\n          // Credit zone owner\r\n          address ownerAddress = zoneStructs[zoneId].owner;\r\n          pendingWithdrawals[ownerAddress] += ownersShare;\r\n        }\r\n\r\n        zoneStructs[zoneId].owner = msg.sender;\r\n        zoneStructs[zoneId].sellPrice = 0;\r\n        return true;\r\n    }\r\n\r\n    /// Allow owner to sell his zone\r\n    function sellZone(uint zoneId, uint amount) public\r\n        onlyValidZone(zoneId)\r\n        onlyZoneOwner(zoneId)\r\n        returns (bool success) \r\n    {\r\n        zoneStructs[zoneId].sellPrice = amount;\r\n        return true;\r\n    }\r\n\r\n    /// Allow owner to transfer his zone\r\n    function transferZone(uint zoneId, address recipient) public\r\n        onlyValidZone(zoneId)\r\n        onlyZoneOwner(zoneId)\r\n        returns (bool success) \r\n    {\r\n        zoneStructs[zoneId].owner = recipient;\r\n        return true;\r\n    }\r\n\r\n    /// Compute initial zone price\r\n    function computeInitialPrice(uint zoneId) public view\r\n        onlyValidZone(zoneId)\r\n        returns (uint price)\r\n    {\r\n        return initialZonePrice + ((zoneId - 1) * (initialZonePrice / 2));\r\n    }\r\n\r\n    /// Return zone details\r\n    function getZone(uint zoneId) public constant\r\n        onlyValidZone(zoneId)\r\n        returns(uint id, address owner, uint sellPrice)\r\n    {\r\n        return (\r\n          zoneStructs[zoneId].id,\r\n          zoneStructs[zoneId].owner,\r\n          zoneStructs[zoneId].sellPrice\r\n        );\r\n    }\r\n\r\n    /// Return balance from sender\r\n    function getBalance() public view\r\n      returns (uint amount)\r\n    {\r\n        return pendingWithdrawals[msg.sender];\r\n    }\r\n\r\n    /// Allow address to withdraw their balance\r\n    function withdraw() public\r\n        returns (bool success) \r\n    {\r\n        uint amount = pendingWithdrawals[msg.sender];\r\n        pendingWithdrawals[msg.sender] = 0;\r\n        msg.sender.transfer(amount);\r\n        return true;\r\n    }\r\n\r\n}",
  "sourcePath": "E:\\dev\\ethmap\\contracts\\ETHMap.sol",
  "compiler": {
    "name": "solc",
    "version": "0.4.18+commit.9cf6e910.Emscripten.clang"
  },
  "schemaVersion": "1.0.1",
  "updatedAt": "2018-01-31T19:36:06.516Z"
}